S01E0000496E746572727570745F776974685F4156525F4C41422E73726563A8
S113000029C0000078C0000094C00000B0C0000007
S113001029C0000027C0000025C0000023C0000044
S113002021C000001FC000001DC000001BC0000054
S113003019C0000017C0000015C0000013C0000064
S113004011C000000FC000000DC000000BC0000074
S113005009C0000011241FBECFE5D8E0DEBFCDBF2C
S113006002D0A3C0CDCF85B796B7816096BF85BFB8
S113007085B796B78D7F96BF85BF85B796B78460E1
S113008096BF85BF85B796B7886096BF85BF85B78D
S113009096B78F7B96BF85BF8BB79CB780629CBF9A
S11300A08BBF8BB79CB780649CBF8BBF8BB79CB74F
S11300B080689CBF8BBF789481B392B3806292BBFB
S11300C081BB81B392B3806492BB81BB81B392B391
S11300D0806892BB81BB82B393B38F7D93BB82BB99
S11300E082B393B38F7B93BB82BB82B393B38F777B
S11300F093BB82BBF0CF1F920F920FB60F921124C5
S11301002F938F939F9382B393B3806293BB82BBED
S11301102FEF89E698E1215080409040E1F700C03C
S113012000009F918F912F910F900FBE0F901F9001
S113013018951F920F920FB60F9211242F938F933D
S11301409F9382B393B3806493BB82BB2FEF89E602
S113015098E1215080409040E1F700C000009F9159
S11301608F912F910F900FBE0F901F9018951F9293
S11301700F920FB60F9211242F938F939F9382B3F4
S113018093B3806893BB82BB2FEF89E698E121503B
S113019080409040E1F700C000009F918F912F9123
S11101A00F900FBE0F901F901895F894FFCF8C
S9030000FC
