:1000000029C000003AC0000038C0000036C000001F
:1000100034C0000032C0000030C000002EC000001C
:100020002CC000002AC0000028C0000026C000002C
:1000300024C0000022C0000020C000001EC000003C
:100040001CC000001AC0000018C0000016C000004C
:1000500014C0000011241FBECFE5D8E0DEBFCDBF25
:1000600010E0A0E6B0E0E4E7F3E002C005900D92F6
:10007000A037B107D9F76AD17BC1C2CF81B3807FE6
:1000800081BB81B3806F81BB8FEF82BB0895AF923C
:10009000BF92CF92DF92EF92FF920F931F93CF9375
:1000A000DF9300E610E0C0E0D0E0D80141E050E08E
:1000B0000F2EF8E6CF2EF0E0DF2EF02DA12CB12C84
:1000C00092B3BA010C9002C0660F771F0A94E2F750
:1000D0009A0112960C90129702C0220F331F0A94B5
:1000E000E2F7262B822F892B9A0114960C901497F5
:1000F00002C0220F331F0A94E2F7282BCA0116967A
:100100000C90169702C0880F991F0A94E2F7822B71
:1001100082BB92B3F80180810E5F1F4F9A0102C02B
:10012000220F331F8A95E2F7822F8095892382BBA5
:10013000F6017A016A2D7B2D05C06F5F7F4F8FEF2F
:10014000E81AF80A80B32081329690E0022E02C0AD
:10015000959587950A94E2F780FD4FC0CA0102C0C9
:10016000880F991F2A95E2F79C0180B390E08223C3
:100170009323892BD1F3C130D105C1F01CF4209712
:1001800041F03BC0C230D105F1F0C330D10541F19F
:1001900034C061157105E9F161307105E1F162303A
:1001A0007105D9F16330710541F539C061157105EB
:1001B000C1F161307105B9F162307105B1F163309F
:1001C0007105D9F434C06115710599F1613071057B
:1001D00091F16230710589F16330710571F42FC0BE
:1001E0006115710571F16130710569F16230710558
:1001F00061F16330710569F52AC094E0E916F104F4
:100200000CF49BCF2196C430D10509F059CF81E47D
:1002100026C087E324C084E322C081E320C08FE3AB
:100220001EC088E31CC085E31AC082E318C080E3C7
:1002300016C089E314C086E312C083E310C08DE3C7
:100240000EC08FE20CC08AE20AC08DE208C08BE2C9
:1002500006C084E0E816F1040CF46FCF81E4DF916E
:10026000CF911F910F91FF90EF90DF90CF90BF90B3
:10027000AF900895C39A83ED90E30197F1F700C022
:100280000000C39808958AB38F708ABBC29AC19840
:10029000F1DF8AB3806F8ABBC2980895CF93C82FCD
:1002A000F2DF8BB39C2F907F8F70892B8BBB88B331
:1002B000897F88BBDFDF2BB330E1C39FC0011124EE
:1002C000922F9F70892B8BBB88B3897F88BBD2DF2D
:1002D000CF91089581E0E2CF089587E893E10197F7
:1002E000F1F700C0000087B38E6087BB88B3817FC1
:1002F00088BB8FEF8ABB85EA9EE00197F1F700C0CB
:100300000000E8DF82E0CADF88E2C8DF86E0C6DFFF
:1003100080E8C4DF8FE0C2CF0895CF93C82F8BB39E
:100320009C2F907F8F70892B8BBBC19AC298A2DFC4
:100330002BB330E1C39FC0011124922F9F70892BF2
:100340008BBBC19AC29896DFCF910895C6DF96DE27
:1003500083ED90E30197F1F700C0000098DE8F3342
:1003600019F08134D9F302C0B5DFF8CFD6DFF6CF6C
:04037000F894FFCF2F
:10037400040005000600070000000100020003005D
:00000001FF
